:0400000027EF00F0F6
:100008000E82FACF0AF0FBCF0BF0F2AC0EEF00F045
:1000180010EF00F021EF00F00E01C1A716EF00F07D
:1000280018EF00F021EF00F0C9A71DEF00F01FEF57
:1000380000F021EF00F0E0EC04F00BC0FBFF0AC079
:0A004800FAFF0E9211003CEF05F0E4
:1009000000340A0000AE0A000000000000000000F1
:10091000000000860A000000826A836A846A856A91
:10092000866A0F010A6B126B1A6B1F6B276BFE0E28
:10093000876E886889688A68070E8B6EFE0E0C6F5A
:1009400014691C692169070E296F0B6B136B1B6BF4
:10095000206B286B0969116919691E69070E266FDA
:100960000869106918691D690F0E256F076B066B02
:10097000056B0F6B0E6B0D6B176B166B156B246B8A
:10098000236B226B1200F29A0E01C591F280000EC9
:100990000C6E000E0D6E52EC05F00E01C593F28246
:1009A000000E0C6E000E0D6E4DEC05F00E01C5959F
:1009B000F284000E0C6E000E0D6E48EC05F0120075
:1009C00001500210D8B4E7EF04F0E9EF04F0F6EFBD
:1009D00004F002D8F6EF04F00500FA6E0150FD6E47
:1009E0000250FE6EF850FF6EFA5012000E01C997C9
:1009F000120082B0FEEF04F001EF05F0010E02EFED
:100A000005F0000EFF0A096E82500918FE0B091846
:100A1000826E12002AEC05F0F28EF28CF20E0C6E51
:100A2000090E0D6E43EC05F057EC05F016EF05F0DE
:100A300027EF00F0060EB86EB76AB96AB568B46AF7
:100A4000B20E016E0A0E026E0E01C997C187800EAA
:100A5000B66E120033EC05F08CEC04F01AEC05F0E5
:100A6000C3EC04F01200600E0E01D36FD56BD76B90
:100A7000080ED96FD86B12000E900E92000EF86E11
:100A800000010AEF05F00CC001F00DC002F01200E9
:100A90000CC003F00DC004F012000CC005F00DC036
:100AA00006F012000CC007F00DC008F01200B68E60
:040AB000120012001E
:020000040030CA
:0C0000008FFFFFFF9FFFFFFFFFFFFFFFD0
:00000001FF
