:0400000027EF00F0F6
:100008001082FACF09F0FBCF0AF0F2AC0EEF00F045
:1000180010EF00F021EF00F00E01C1A316EF00F081
:1000280018EF00F021EF00F0C9A31DEF00F01FEF5B
:1000380000F021EF00F014EC05F00AC0FBFF09C046
:0A004800FAFF1092110046EF05F0D8
:1009000000003DEC05F0F28EF28CA5EF04F0D40E61
:100910000B6E0A0E0C6E56EC05F06DEC05F0010E38
:100920000F6EA5EF04F082B098EF04F09BEF04F097
:10093000010E9CEF04F0000EFF0A0D6E82500D18A0
:10094000FE0B0D18826E8FEF04F00F500D6E0E6AC5
:100950000E50000AD8B4AFEF04F0A5EF04F00D502C
:10096000000AD8B487EF04F0010AD8B4A5EF04F068
:10097000030AD8B493EF04F0A5EF04F027EF00F0DA
:10098000826A836A846A856A866A0F010A6B126BBF
:100990001A6B1F6B276BFE0E876E886889688A68E2
:1009A000070E8B6EFE0E0C6F14691C692169070E11
:1009B000296F0B6B136B1B6B206B286B096911691B
:1009C00019691E69070E266F0869106918691D6983
:1009D0000F0E256F076B066B056B0F6B0E6B0D6BA8
:1009E000176B166B156B246B236B226B1200F29A3C
:1009F0000E01C591F280000E0B6E000E0C6E65ECC0
:100A000005F00E01C593F282000E0B6E000E0C6E07
:100A100060EC05F00E01C595F284000E0B6E000E21
:100A20000C6E5BEC05F0120001500210D8B41BEF05
:100A300005F01DEF05F02AEF05F002D82AEF05F0CA
:100A40000500FA6E0150FD6E0250FE6EF850FF6E0A
:100A5000FA5012000E01C9931200030EBE6EBD6A59
:100A6000BF6AF40EBB6EBA6ADE0E016E0A0E026E2B
:100A70000E01C993C183BC6812004EEC05F0C0ECB6
:100A800004F02DEC05F0F7EC04F012000F6A109062
:100A90001092000EF86E000181EF04F0600E0E015E
:100AA000D36FD56BD76BD96BD86B12000BC001F02D
:100AB0000CC002F012000BC003F00CC004F01200D6
:100AC0000BC005F00CC006F012000BC007F00CC004
:100AD00008F01200020E0F6E1200BC8E12001200FF
:020000040030CA
:0C0000008FFFFFFF9FFFFFFFFFFFFFFFD0
:00000001FF
